{"abi":[{"type":"constructor","inputs":[{"name":"initialOwner","type":"address","internalType":"address"}],"stateMutability":"nonpayable"},{"type":"function","name":"approve","inputs":[{"name":"to","type":"address","internalType":"address"},{"name":"tokenId","type":"uint256","internalType":"uint256"}],"outputs":[],"stateMutability":"nonpayable"},{"type":"function","name":"balanceOf","inputs":[{"name":"owner","type":"address","internalType":"address"}],"outputs":[{"name":"","type":"uint256","internalType":"uint256"}],"stateMutability":"view"},{"type":"function","name":"getApproved","inputs":[{"name":"tokenId","type":"uint256","internalType":"uint256"}],"outputs":[{"name":"","type":"address","internalType":"address"}],"stateMutability":"view"},{"type":"function","name":"isApprovedForAll","inputs":[{"name":"owner","type":"address","internalType":"address"},{"name":"operator","type":"address","internalType":"address"}],"outputs":[{"name":"","type":"bool","internalType":"bool"}],"stateMutability":"view"},{"type":"function","name":"name","inputs":[],"outputs":[{"name":"","type":"string","internalType":"string"}],"stateMutability":"view"},{"type":"function","name":"owner","inputs":[],"outputs":[{"name":"","type":"address","internalType":"address"}],"stateMutability":"view"},{"type":"function","name":"ownerOf","inputs":[{"name":"tokenId","type":"uint256","internalType":"uint256"}],"outputs":[{"name":"","type":"address","internalType":"address"}],"stateMutability":"view"},{"type":"function","name":"pause","inputs":[],"outputs":[],"stateMutability":"nonpayable"},{"type":"function","name":"paused","inputs":[],"outputs":[{"name":"","type":"bool","internalType":"bool"}],"stateMutability":"view"},{"type":"function","name":"renounceOwnership","inputs":[],"outputs":[],"stateMutability":"nonpayable"},{"type":"function","name":"safeMint","inputs":[{"name":"to","type":"address","internalType":"address"},{"name":"uri","type":"string","internalType":"string"}],"outputs":[{"name":"","type":"uint256","internalType":"uint256"}],"stateMutability":"nonpayable"},{"type":"function","name":"safeTransferFrom","inputs":[{"name":"from","type":"address","internalType":"address"},{"name":"to","type":"address","internalType":"address"},{"name":"tokenId","type":"uint256","internalType":"uint256"}],"outputs":[],"stateMutability":"nonpayable"},{"type":"function","name":"safeTransferFrom","inputs":[{"name":"from","type":"address","internalType":"address"},{"name":"to","type":"address","internalType":"address"},{"name":"tokenId","type":"uint256","internalType":"uint256"},{"name":"data","type":"bytes","internalType":"bytes"}],"outputs":[],"stateMutability":"nonpayable"},{"type":"function","name":"setApprovalForAll","inputs":[{"name":"operator","type":"address","internalType":"address"},{"name":"approved","type":"bool","internalType":"bool"}],"outputs":[],"stateMutability":"nonpayable"},{"type":"function","name":"supportsInterface","inputs":[{"name":"interfaceId","type":"bytes4","internalType":"bytes4"}],"outputs":[{"name":"","type":"bool","internalType":"bool"}],"stateMutability":"view"},{"type":"function","name":"symbol","inputs":[],"outputs":[{"name":"","type":"string","internalType":"string"}],"stateMutability":"view"},{"type":"function","name":"tokenURI","inputs":[{"name":"tokenId","type":"uint256","internalType":"uint256"}],"outputs":[{"name":"","type":"string","internalType":"string"}],"stateMutability":"view"},{"type":"function","name":"transferFrom","inputs":[{"name":"from","type":"address","internalType":"address"},{"name":"to","type":"address","internalType":"address"},{"name":"tokenId","type":"uint256","internalType":"uint256"}],"outputs":[],"stateMutability":"nonpayable"},{"type":"function","name":"transferOwnership","inputs":[{"name":"newOwner","type":"address","internalType":"address"}],"outputs":[],"stateMutability":"nonpayable"},{"type":"function","name":"unpause","inputs":[],"outputs":[],"stateMutability":"nonpayable"},{"type":"event","name":"Approval","inputs":[{"name":"owner","type":"address","indexed":true,"internalType":"address"},{"name":"approved","type":"address","indexed":true,"internalType":"address"},{"name":"tokenId","type":"uint256","indexed":true,"internalType":"uint256"}],"anonymous":false},{"type":"event","name":"ApprovalForAll","inputs":[{"name":"owner","type":"address","indexed":true,"internalType":"address"},{"name":"operator","type":"address","indexed":true,"internalType":"address"},{"name":"approved","type":"bool","indexed":false,"internalType":"bool"}],"anonymous":false},{"type":"event","name":"BatchMetadataUpdate","inputs":[{"name":"_fromTokenId","type":"uint256","indexed":false,"internalType":"uint256"},{"name":"_toTokenId","type":"uint256","indexed":false,"internalType":"uint256"}],"anonymous":false},{"type":"event","name":"MetadataUpdate","inputs":[{"name":"_tokenId","type":"uint256","indexed":false,"internalType":"uint256"}],"anonymous":false},{"type":"event","name":"OwnershipTransferred","inputs":[{"name":"previousOwner","type":"address","indexed":true,"internalType":"address"},{"name":"newOwner","type":"address","indexed":true,"internalType":"address"}],"anonymous":false},{"type":"event","name":"Paused","inputs":[{"name":"account","type":"address","indexed":false,"internalType":"address"}],"anonymous":false},{"type":"event","name":"Transfer","inputs":[{"name":"from","type":"address","indexed":true,"internalType":"address"},{"name":"to","type":"address","indexed":true,"internalType":"address"},{"name":"tokenId","type":"uint256","indexed":true,"internalType":"uint256"}],"anonymous":false},{"type":"event","name":"Unpaused","inputs":[{"name":"account","type":"address","indexed":false,"internalType":"address"}],"anonymous":false},{"type":"error","name":"ERC721IncorrectOwner","inputs":[{"name":"sender","type":"address","internalType":"address"},{"name":"tokenId","type":"uint256","internalType":"uint256"},{"name":"owner","type":"address","internalType":"address"}]},{"type":"error","name":"ERC721InsufficientApproval","inputs":[{"name":"operator","type":"address","internalType":"address"},{"name":"tokenId","type":"uint256","internalType":"uint256"}]},{"type":"error","name":"ERC721InvalidApprover","inputs":[{"name":"approver","type":"address","internalType":"address"}]},{"type":"error","name":"ERC721InvalidOperator","inputs":[{"name":"operator","type":"address","internalType":"address"}]},{"type":"error","name":"ERC721InvalidOwner","inputs":[{"name":"owner","type":"address","internalType":"address"}]},{"type":"error","name":"ERC721InvalidReceiver","inputs":[{"name":"receiver","type":"address","internalType":"address"}]},{"type":"error","name":"ERC721InvalidSender","inputs":[{"name":"sender","type":"address","internalType":"address"}]},{"type":"error","name":"ERC721NonexistentToken","inputs":[{"name":"tokenId","type":"uint256","internalType":"uint256"}]},{"type":"error","name":"EnforcedPause","inputs":[]},{"type":"error","name":"ExpectedPause","inputs":[]},{"type":"error","name":"OwnableInvalidOwner","inputs":[{"name":"owner","type":"address","internalType":"address"}]},{"type":"error","name":"OwnableUnauthorizedAccount","inputs":[{"name":"account","type":"address","internalType":"address"}]}],"bytecode":{"object":"0x608060405234801561000f575f5ffd5b50604051612e32380380612e3283398181016040528101906100319190610268565b806040518060400160405280601b81526020017f546f6d62206f66204c69676874204c656761637920416e63686f7200000000008152506040518060400160405280600481526020017f544f4c4100000000000000000000000000000000000000000000000000000000815250815f90816100ac91906104e1565b5080600190816100bc91906104e1565b5050505f73ffffffffffffffffffffffffffffffffffffffff168173ffffffffffffffffffffffffffffffffffffffff160361012f575f6040517f1e4fbdf700000000000000000000000000000000000000000000000000000000815260040161012691906105bf565b60405180910390fd5b61013e8161014560201b60201c565b50506105d8565b5f600760019054906101000a900473ffffffffffffffffffffffffffffffffffffffff16905081600760016101000a81548173ffffffffffffffffffffffffffffffffffffffff021916908373ffffffffffffffffffffffffffffffffffffffff1602179055508173ffffffffffffffffffffffffffffffffffffffff168173ffffffffffffffffffffffffffffffffffffffff167f8be0079c531659141344cd1fd0a4f28419497f9722a3daafe3b4186f6b6457e060405160405180910390a35050565b5f5ffd5b5f73ffffffffffffffffffffffffffffffffffffffff82169050919050565b5f6102378261020e565b9050919050565b6102478161022d565b8114610251575f5ffd5b50565b5f815190506102628161023e565b92915050565b5f6020828403121561027d5761027c61020a565b5b5f61028a84828501610254565b91505092915050565b5f81519050919050565b7f4e487b71000000000000000000000000000000000000000000000000000000005f52604160045260245ffd5b7f4e487b71000000000000000000000000000000000000000000000000000000005f52602260045260245ffd5b5f600282049050600182168061030e57607f821691505b602082108103610321576103206102ca565b5b50919050565b5f819050815f5260205f209050919050565b5f6020601f8301049050919050565b5f82821b905092915050565b5f600883026103837fffffffffffffffffffffffffffffffffffffffffffffffffffffffffffffffff82610348565b61038d8683610348565b95508019841693508086168417925050509392505050565b5f819050919050565b5f819050919050565b5f6103d16103cc6103c7846103a5565b6103ae565b6103a5565b9050919050565b5f819050919050565b6103ea836103b7565b6103fe6103f6826103d8565b848454610354565b825550505050565b5f5f905090565b610415610406565b6104208184846103e1565b505050565b5f5b828110156104465761043b5f82840161040d565b600181019050610427565b505050565b601f82111561049957828211156104985761046581610327565b61046e83610339565b61047785610339565b6020861015610484575f90505b80830161049382840382610425565b505050505b5b505050565b5f82821c905092915050565b5f6104b95f198460080261049e565b1980831691505092915050565b5f6104d183836104aa565b9150826002028217905092915050565b6104ea82610293565b67ffffffffffffffff8111156105035761050261029d565b5b61050d82546102f7565b61051882828561044b565b5f60209050601f831160018114610549575f8415610537578287015190505b61054185826104c6565b8655506105a8565b601f19841661055786610327565b5f5b8281101561057e57848901518255600182019150602085019450602081019050610559565b8683101561059b5784890151610597601f8916826104aa565b8355505b6001600288020188555050505b505050505050565b6105b98161022d565b82525050565b5f6020820190506105d25f8301846105b0565b92915050565b61284d806105e55f395ff3fe608060405234801561000f575f5ffd5b506004361061012a575f3560e01c8063715018a6116100ab578063b88d4fde1161006f578063b88d4fde146102f4578063c87b56dd14610310578063d204c45e14610340578063e985e9c514610370578063f2fde38b146103a05761012a565b8063715018a6146102885780638456cb59146102925780638da5cb5b1461029c57806395d89b41146102ba578063a22cb465146102d85761012a565b80633f4ba83a116100f25780633f4ba83a146101e457806342842e0e146101ee5780635c975abb1461020a5780636352211e1461022857806370a08231146102585761012a565b806301ffc9a71461012e57806306fdde031461015e578063081812fc1461017c578063095ea7b3146101ac57806323b872dd146101c8575b5f5ffd5b61014860048036038101906101439190611d0c565b6103bc565b6040516101559190611d51565b60405180910390f35b6101666103cd565b6040516101739190611dda565b60405180910390f35b61019660048036038101906101919190611e2d565b61045c565b6040516101a39190611e97565b60405180910390f35b6101c660048036038101906101c19190611eda565b610477565b005b6101e260048036038101906101dd9190611f18565b61048d565b005b6101ec61058c565b005b61020860048036038101906102039190611f18565b61059e565b005b6102126105bd565b60405161021f9190611d51565b60405180910390f35b610242600480360381019061023d9190611e2d565b6105d2565b60405161024f9190611e97565b60405180910390f35b610272600480360381019061026d9190611f68565b6105e3565b60405161027f9190611fa2565b60405180910390f35b610290610699565b005b61029a6106ac565b005b6102a46106be565b6040516102b19190611e97565b60405180910390f35b6102c26106e7565b6040516102cf9190611dda565b60405180910390f35b6102f260048036038101906102ed9190611fe5565b610777565b005b61030e6004803603810190610309919061214f565b61078d565b005b61032a60048036038101906103259190611e2d565b6107b2565b6040516103379190611dda565b60405180910390f35b61035a6004803603810190610355919061226d565b6107c4565b6040516103679190611fa2565b60405180910390f35b61038a600480360381019061038591906122c7565b610804565b6040516103979190611d51565b60405180910390f35b6103ba60048036038101906103b59190611f68565b610892565b005b5f6103c682610916565b9050919050565b60605f80546103db90612332565b80601f016020809104026020016040519081016040528092919081815260200182805461040790612332565b80156104525780601f1061042957610100808354040283529160200191610452565b820191905f5260205f20905b81548152906001019060200180831161043557829003601f168201915b5050505050905090565b5f61046682610976565b50610470826109fc565b9050919050565b6104898282610484610a35565b610a3c565b5050565b5f73ffffffffffffffffffffffffffffffffffffffff168273ffffffffffffffffffffffffffffffffffffffff16036104fd575f6040517f64a0ae920000000000000000000000000000000000000000000000000000000081526004016104f49190611e97565b60405180910390fd5b5f610510838361050b610a35565b610a4e565b90508373ffffffffffffffffffffffffffffffffffffffff168173ffffffffffffffffffffffffffffffffffffffff1614610586578382826040517f64283d7b00000000000000000000000000000000000000000000000000000000815260040161057d93929190612362565b60405180910390fd5b50505050565b610594610a63565b61059c610aea565b565b6105b883838360405180602001604052805f81525061078d565b505050565b5f60075f9054906101000a900460ff16905090565b5f6105dc82610976565b9050919050565b5f5f73ffffffffffffffffffffffffffffffffffffffff168273ffffffffffffffffffffffffffffffffffffffff1603610654575f6040517f89c62b6400000000000000000000000000000000000000000000000000000000815260040161064b9190611e97565b60405180910390fd5b60035f8373ffffffffffffffffffffffffffffffffffffffff1673ffffffffffffffffffffffffffffffffffffffff1681526020019081526020015f20549050919050565b6106a1610a63565b6106aa5f610b4b565b565b6106b4610a63565b6106bc610c10565b565b5f600760019054906101000a900473ffffffffffffffffffffffffffffffffffffffff16905090565b6060600180546106f690612332565b80601f016020809104026020016040519081016040528092919081815260200182805461072290612332565b801561076d5780601f106107445761010080835404028352916020019161076d565b820191905f5260205f20905b81548152906001019060200180831161075057829003601f168201915b5050505050905090565b610789610782610a35565b8383610c72565b5050565b61079884848461048d565b6107ac6107a3610a35565b85858585610e4b565b50505050565b60606107bd82610ff7565b9050919050565b5f6107cd610a63565b5f60085f8154809291906107e0906123c4565b9190505590506107f08482611073565b6107fa8184611090565b8091505092915050565b5f60055f8473ffffffffffffffffffffffffffffffffffffffff1673ffffffffffffffffffffffffffffffffffffffff1681526020019081526020015f205f8373ffffffffffffffffffffffffffffffffffffffff1673ffffffffffffffffffffffffffffffffffffffff1681526020019081526020015f205f9054906101000a900460ff16905092915050565b61089a610a63565b5f73ffffffffffffffffffffffffffffffffffffffff168173ffffffffffffffffffffffffffffffffffffffff160361090a575f6040517f1e4fbdf70000000000000000000000000000000000000000000000000000000081526004016109019190611e97565b60405180910390fd5b61091381610b4b565b50565b5f634906490660e01b7bffffffffffffffffffffffffffffffffffffffffffffffffffffffff1916827bffffffffffffffffffffffffffffffffffffffffffffffffffffffff1916148061096f575061096e826110ea565b5b9050919050565b5f5f610981836111cb565b90505f73ffffffffffffffffffffffffffffffffffffffff168173ffffffffffffffffffffffffffffffffffffffff16036109f357826040517f7e2732890000000000000000000000000000000000000000000000000000000081526004016109ea9190611fa2565b60405180910390fd5b80915050919050565b5f60045f8381526020019081526020015f205f9054906101000a900473ffffffffffffffffffffffffffffffffffffffff169050919050565b5f33905090565b610a498383836001611204565b505050565b5f610a5a8484846113c3565b90509392505050565b610a6b610a35565b73ffffffffffffffffffffffffffffffffffffffff16610a896106be565b73ffffffffffffffffffffffffffffffffffffffff1614610ae857610aac610a35565b6040517f118cdaa7000000000000000000000000000000000000000000000000000000008152600401610adf9190611e97565b60405180910390fd5b565b610af26113e0565b5f60075f6101000a81548160ff0219169083151502179055507f5db9ee0a495bf2e6ff9c91a7834c1ba4fdd244a5e8aa4e537bd38aeae4b073aa610b34610a35565b604051610b419190611e97565b60405180910390a1565b5f600760019054906101000a900473ffffffffffffffffffffffffffffffffffffffff16905081600760016101000a81548173ffffffffffffffffffffffffffffffffffffffff021916908373ffffffffffffffffffffffffffffffffffffffff1602179055508173ffffffffffffffffffffffffffffffffffffffff168173ffffffffffffffffffffffffffffffffffffffff167f8be0079c531659141344cd1fd0a4f28419497f9722a3daafe3b4186f6b6457e060405160405180910390a35050565b610c18611420565b600160075f6101000a81548160ff0219169083151502179055507f62e78cea01bee320cd4e420270b5ea74000d11b0c9f74754ebdbfc544b05a258610c5b610a35565b604051610c689190611e97565b60405180910390a1565b5f73ffffffffffffffffffffffffffffffffffffffff168373ffffffffffffffffffffffffffffffffffffffff1603610ce2575f6040517fa9fbf51f000000000000000000000000000000000000000000000000000000008152600401610cd99190611e97565b60405180910390fd5b5f73ffffffffffffffffffffffffffffffffffffffff168273ffffffffffffffffffffffffffffffffffffffff1603610d5257816040517f5b08ba18000000000000000000000000000000000000000000000000000000008152600401610d499190611e97565b60405180910390fd5b8060055f8573ffffffffffffffffffffffffffffffffffffffff1673ffffffffffffffffffffffffffffffffffffffff1681526020019081526020015f205f8473ffffffffffffffffffffffffffffffffffffffff1673ffffffffffffffffffffffffffffffffffffffff1681526020019081526020015f205f6101000a81548160ff0219169083151502179055508173ffffffffffffffffffffffffffffffffffffffff168373ffffffffffffffffffffffffffffffffffffffff167f17307eab39ab6107e8899845ad3d59bd9653f200f220920489ca2b5937696c3183604051610e3e9190611d51565b60405180910390a3505050565b5f8373ffffffffffffffffffffffffffffffffffffffff163b1115610ff0578273ffffffffffffffffffffffffffffffffffffffff1663150b7a02868685856040518563ffffffff1660e01b8152600401610ea9949392919061245d565b6020604051808303815f875af1925050508015610ee457506040513d601f19601f82011682018060405250810190610ee191906124bb565b60015b610f65573d805f8114610f12576040519150601f19603f3d011682016040523d82523d5f602084013e610f17565b606091505b505f815103610f5d57836040517f64a0ae92000000000000000000000000000000000000000000000000000000008152600401610f549190611e97565b60405180910390fd5b805160208201fd5b63150b7a0260e01b7bffffffffffffffffffffffffffffffffffffffffffffffffffffffff1916817bffffffffffffffffffffffffffffffffffffffffffffffffffffffff191614610fee57836040517f64a0ae92000000000000000000000000000000000000000000000000000000008152600401610fe59190611e97565b60405180910390fd5b505b5050505050565b606061100282610976565b505f61100c611461565b90505f61101884611477565b90505f82510361102c57809250505061106e565b5f81511115611060578181604051602001611048929190612520565b6040516020818303038152906040529250505061106e565b61106984611518565b925050505b919050565b61108c828260405180602001604052805f81525061157e565b5050565b8060065f8481526020019081526020015f2090816110ae91906126f4565b507ff8e1a15aba9398e019f0b49df1a4fde98ee17ae345cb5f6b5e2c27f5033e8ce7826040516110de9190611fa2565b60405180910390a15050565b5f7f80ac58cd000000000000000000000000000000000000000000000000000000007bffffffffffffffffffffffffffffffffffffffffffffffffffffffff1916827bffffffffffffffffffffffffffffffffffffffffffffffffffffffff191614806111b457507f5b5e139f000000000000000000000000000000000000000000000000000000007bffffffffffffffffffffffffffffffffffffffffffffffffffffffff1916827bffffffffffffffffffffffffffffffffffffffffffffffffffffffff1916145b806111c457506111c3826115a1565b5b9050919050565b5f60025f8381526020019081526020015f205f9054906101000a900473ffffffffffffffffffffffffffffffffffffffff169050919050565b808061123c57505f73ffffffffffffffffffffffffffffffffffffffff168273ffffffffffffffffffffffffffffffffffffffff1614155b1561136e575f61124b84610976565b90505f73ffffffffffffffffffffffffffffffffffffffff168373ffffffffffffffffffffffffffffffffffffffff16141580156112b557508273ffffffffffffffffffffffffffffffffffffffff168173ffffffffffffffffffffffffffffffffffffffff1614155b80156112c857506112c68184610804565b155b1561130a57826040517fa9fbf51f0000000000000000000000000000000000000000000000000000000081526004016113019190611e97565b60405180910390fd5b811561136c57838573ffffffffffffffffffffffffffffffffffffffff168273ffffffffffffffffffffffffffffffffffffffff167f8c5be1e5ebec7d5bd14f71427d1e84f3dd0314c0f7b2291e5b200ac8c7c3b92560405160405180910390a45b505b8360045f8581526020019081526020015f205f6101000a81548173ffffffffffffffffffffffffffffffffffffffff021916908373ffffffffffffffffffffffffffffffffffffffff16021790555050505050565b5f6113cc611420565b6113d784848461160a565b90509392505050565b6113e86105bd565b61141e576040517f8dfc202b00000000000000000000000000000000000000000000000000000000815260040160405180910390fd5b565b6114286105bd565b1561145f576040517fd93c066500000000000000000000000000000000000000000000000000000000815260040160405180910390fd5b565b606060405180602001604052805f815250905090565b606060065f8381526020019081526020015f20805461149590612332565b80601f01602080910402602001604051908101604052809291908181526020018280546114c190612332565b801561150c5780601f106114e35761010080835404028352916020019161150c565b820191905f5260205f20905b8154815290600101906020018083116114ef57829003601f168201915b50505050509050919050565b606061152382610976565b505f61152d611461565b90505f81511161154b5760405180602001604052805f815250611576565b8061155584611815565b604051602001611566929190612520565b6040516020818303038152906040525b915050919050565b61158883836118df565b61159c611593610a35565b5f858585610e4b565b505050565b5f7f01ffc9a7000000000000000000000000000000000000000000000000000000007bffffffffffffffffffffffffffffffffffffffffffffffffffffffff1916827bffffffffffffffffffffffffffffffffffffffffffffffffffffffff1916149050919050565b5f5f611615846111cb565b90505f73ffffffffffffffffffffffffffffffffffffffff168373ffffffffffffffffffffffffffffffffffffffff1614611656576116558184866119d2565b5b5f73ffffffffffffffffffffffffffffffffffffffff168173ffffffffffffffffffffffffffffffffffffffff16146116e1576116955f855f5f611204565b600160035f8373ffffffffffffffffffffffffffffffffffffffff1673ffffffffffffffffffffffffffffffffffffffff1681526020019081526020015f205f82825403925050819055505b5f73ffffffffffffffffffffffffffffffffffffffff168573ffffffffffffffffffffffffffffffffffffffff161461176057600160035f8773ffffffffffffffffffffffffffffffffffffffff1673ffffffffffffffffffffffffffffffffffffffff1681526020019081526020015f205f82825401925050819055505b8460025f8681526020019081526020015f205f6101000a81548173ffffffffffffffffffffffffffffffffffffffff021916908373ffffffffffffffffffffffffffffffffffffffff160217905550838573ffffffffffffffffffffffffffffffffffffffff168273ffffffffffffffffffffffffffffffffffffffff167fddf252ad1be2c89b69c2b068fc378daa952ba7f163c4a11628f55a4df523b3ef60405160405180910390a4809150509392505050565b60605f600161182384611a95565b0190505f8167ffffffffffffffff8111156118415761184061202b565b5b6040519080825280601f01601f1916602001820160405280156118735781602001600182028036833780820191505090505b5090505f82602083010190505b6001156118d4578080600190039150507f3031323334353637383961626364656600000000000000000000000000000000600a86061a8153600a85816118c9576118c86127c3565b5b0494505f8503611880575b819350505050919050565b5f73ffffffffffffffffffffffffffffffffffffffff168273ffffffffffffffffffffffffffffffffffffffff160361194f575f6040517f64a0ae920000000000000000000000000000000000000000000000000000000081526004016119469190611e97565b60405180910390fd5b5f61195b83835f610a4e565b90505f73ffffffffffffffffffffffffffffffffffffffff168173ffffffffffffffffffffffffffffffffffffffff16146119cd575f6040517f73c6ac6e0000000000000000000000000000000000000000000000000000000081526004016119c49190611e97565b60405180910390fd5b505050565b6119dd838383611be6565b611a90575f73ffffffffffffffffffffffffffffffffffffffff168373ffffffffffffffffffffffffffffffffffffffff1603611a5157806040517f7e273289000000000000000000000000000000000000000000000000000000008152600401611a489190611fa2565b60405180910390fd5b81816040517f177e802f000000000000000000000000000000000000000000000000000000008152600401611a879291906127f0565b60405180910390fd5b505050565b5f5f5f90507a184f03e93ff9f4daa797ed6e38ed64bf6a1f0100000000000000008310611af1577a184f03e93ff9f4daa797ed6e38ed64bf6a1f0100000000000000008381611ae757611ae66127c3565b5b0492506040810190505b6d04ee2d6d415b85acef81000000008310611b2e576d04ee2d6d415b85acef81000000008381611b2457611b236127c3565b5b0492506020810190505b662386f26fc100008310611b5d57662386f26fc100008381611b5357611b526127c3565b5b0492506010810190505b6305f5e1008310611b86576305f5e1008381611b7c57611b7b6127c3565b5b0492506008810190505b6127108310611bab576127108381611ba157611ba06127c3565b5b0492506004810190505b60648310611bce5760648381611bc457611bc36127c3565b5b0492506002810190505b600a8310611bdd576001810190505b80915050919050565b5f5f73ffffffffffffffffffffffffffffffffffffffff168373ffffffffffffffffffffffffffffffffffffffff1614158015611c9d57508273ffffffffffffffffffffffffffffffffffffffff168473ffffffffffffffffffffffffffffffffffffffff161480611c5e5750611c5d8484610804565b5b80611c9c57508273ffffffffffffffffffffffffffffffffffffffff16611c84836109fc565b73ffffffffffffffffffffffffffffffffffffffff16145b5b90509392505050565b5f604051905090565b5f5ffd5b5f5ffd5b5f7fffffffff0000000000000000000000000000000000000000000000000000000082169050919050565b611ceb81611cb7565b8114611cf5575f5ffd5b50565b5f81359050611d0681611ce2565b92915050565b5f60208284031215611d2157611d20611caf565b5b5f611d2e84828501611cf8565b91505092915050565b5f8115159050919050565b611d4b81611d37565b82525050565b5f602082019050611d645f830184611d42565b92915050565b5f81519050919050565b5f82825260208201905092915050565b8281835e5f83830152505050565b5f601f19601f8301169050919050565b5f611dac82611d6a565b611db68185611d74565b9350611dc6818560208601611d84565b611dcf81611d92565b840191505092915050565b5f6020820190508181035f830152611df28184611da2565b905092915050565b5f819050919050565b611e0c81611dfa565b8114611e16575f5ffd5b50565b5f81359050611e2781611e03565b92915050565b5f60208284031215611e4257611e41611caf565b5b5f611e4f84828501611e19565b91505092915050565b5f73ffffffffffffffffffffffffffffffffffffffff82169050919050565b5f611e8182611e58565b9050919050565b611e9181611e77565b82525050565b5f602082019050611eaa5f830184611e88565b92915050565b611eb981611e77565b8114611ec3575f5ffd5b50565b5f81359050611ed481611eb0565b92915050565b5f5f60408385031215611ef057611eef611caf565b5b5f611efd85828601611ec6565b9250506020611f0e85828601611e19565b9150509250929050565b5f5f5f60608486031215611f2f57611f2e611caf565b5b5f611f3c86828701611ec6565b9350506020611f4d86828701611ec6565b9250506040611f5e86828701611e19565b9150509250925092565b5f60208284031215611f7d57611f7c611caf565b5b5f611f8a84828501611ec6565b91505092915050565b611f9c81611dfa565b82525050565b5f602082019050611fb55f830184611f93565b92915050565b611fc481611d37565b8114611fce575f5ffd5b50565b5f81359050611fdf81611fbb565b92915050565b5f5f60408385031215611ffb57611ffa611caf565b5b5f61200885828601611ec6565b925050602061201985828601611fd1565b9150509250929050565b5f5ffd5b5f5ffd5b7f4e487b71000000000000000000000000000000000000000000000000000000005f52604160045260245ffd5b61206182611d92565b810181811067ffffffffffffffff821117156120805761207f61202b565b5b80604052505050565b5f612092611ca6565b905061209e8282612058565b919050565b5f67ffffffffffffffff8211156120bd576120bc61202b565b5b6120c682611d92565b9050602081019050919050565b828183375f83830152505050565b5f6120f36120ee846120a3565b612089565b90508281526020810184848401111561210f5761210e612027565b5b61211a8482856120d3565b509392505050565b5f82601f83011261213657612135612023565b5b81356121468482602086016120e1565b91505092915050565b5f5f5f5f6080858703121561216757612166611caf565b5b5f61217487828801611ec6565b945050602061218587828801611ec6565b935050604061219687828801611e19565b925050606085013567ffffffffffffffff8111156121b7576121b6611cb3565b5b6121c387828801612122565b91505092959194509250565b5f67ffffffffffffffff8211156121e9576121e861202b565b5b6121f282611d92565b9050602081019050919050565b5f61221161220c846121cf565b612089565b90508281526020810184848401111561222d5761222c612027565b5b6122388482856120d3565b509392505050565b5f82601f83011261225457612253612023565b5b81356122648482602086016121ff565b91505092915050565b5f5f6040838503121561228357612282611caf565b5b5f61229085828601611ec6565b925050602083013567ffffffffffffffff8111156122b1576122b0611cb3565b5b6122bd85828601612240565b9150509250929050565b5f5f604083850312156122dd576122dc611caf565b5b5f6122ea85828601611ec6565b92505060206122fb85828601611ec6565b9150509250929050565b7f4e487b71000000000000000000000000000000000000000000000000000000005f52602260045260245ffd5b5f600282049050600182168061234957607f821691505b60208210810361235c5761235b612305565b5b50919050565b5f6060820190506123755f830186611e88565b6123826020830185611f93565b61238f6040830184611e88565b949350505050565b7f4e487b71000000000000000000000000000000000000000000000000000000005f52601160045260245ffd5b5f6123ce82611dfa565b91507fffffffffffffffffffffffffffffffffffffffffffffffffffffffffffffffff8203612400576123ff612397565b5b600182019050919050565b5f81519050919050565b5f82825260208201905092915050565b5f61242f8261240b565b6124398185612415565b9350612449818560208601611d84565b61245281611d92565b840191505092915050565b5f6080820190506124705f830187611e88565b61247d6020830186611e88565b61248a6040830185611f93565b818103606083015261249c8184612425565b905095945050505050565b5f815190506124b581611ce2565b92915050565b5f602082840312156124d0576124cf611caf565b5b5f6124dd848285016124a7565b91505092915050565b5f81905092915050565b5f6124fa82611d6a565b61250481856124e6565b9350612514818560208601611d84565b80840191505092915050565b5f61252b82856124f0565b915061253782846124f0565b91508190509392505050565b5f819050815f5260205f209050919050565b5f6020601f8301049050919050565b5f82821b905092915050565b5f6008830261259f7fffffffffffffffffffffffffffffffffffffffffffffffffffffffffffffffff82612564565b6125a98683612564565b95508019841693508086168417925050509392505050565b5f819050919050565b5f6125e46125df6125da84611dfa565b6125c1565b611dfa565b9050919050565b5f819050919050565b6125fd836125ca565b612611612609826125eb565b848454612570565b825550505050565b5f5f905090565b612628612619565b6126338184846125f4565b505050565b5f5b828110156126595761264e5f828401612620565b60018101905061263a565b505050565b601f8211156126ac57828211156126ab5761267881612543565b61268183612555565b61268a85612555565b6020861015612697575f90505b8083016126a682840382612638565b505050505b5b505050565b5f82821c905092915050565b5f6126cc5f19846008026126b1565b1980831691505092915050565b5f6126e483836126bd565b9150826002028217905092915050565b6126fd82611d6a565b67ffffffffffffffff8111156127165761271561202b565b5b6127208254612332565b61272b82828561265e565b5f60209050601f83116001811461275c575f841561274a578287015190505b61275485826126d9565b8655506127bb565b601f19841661276a86612543565b5f5b828110156127915784890151825560018201915060208501945060208101905061276c565b868310156127ae57848901516127aa601f8916826126bd565b8355505b6001600288020188555050505b505050505050565b7f4e487b71000000000000000000000000000000000000000000000000000000005f52601260045260245ffd5b5f6040820190506128035f830185611e88565b6128106020830184611f93565b939250505056fea2646970667358221220cce5c41a408b418d9c71445b9c98201412d1d5bff2b1b832a0ab407df49cd78a64736f6c63430008210033","linkReferences":{}},"methodIdentifiers":{"approve(address,uint256)":"095ea7b3","balanceOf(address)":"70a08231","getApproved(uint256)":"081812fc","isApprovedForAll(address,address)":"e985e9c5","name()":"06fdde03","owner()":"8da5cb5b","ownerOf(uint256)":"6352211e","pause()":"8456cb59","paused()":"5c975abb","renounceOwnership()":"715018a6","safeMint(address,string)":"d204c45e","safeTransferFrom(address,address,uint256)":"42842e0e","safeTransferFrom(address,address,uint256,bytes)":"b88d4fde","setApprovalForAll(address,bool)":"a22cb465","supportsInterface(bytes4)":"01ffc9a7","symbol()":"95d89b41","tokenURI(uint256)":"c87b56dd","transferFrom(address,address,uint256)":"23b872dd","transferOwnership(address)":"f2fde38b","unpause()":"3f4ba83a"},"id":22}